:100000000C94F5010C941D020C941D020C941D021D
:100010000C941D020C941D020C941D020C941D02E4
:100020000C941D020C941D020C94970E0C94090F55
:100030000C941D020C941D020C941D020C941D02C4
:100040000C941D020C941D020C941D020C941D02B4
:100050000C941D020C941D020C941D020C946A0752
:100060000C941D020C94CF050C94A9050C941D0250
:100070000C941D020C941D020C941D020C941D0284
:100080000C9439110C941D020C941D020C941D0249
:100090000C941D020C941D020C941D020C941D0264
:1000A0000C941D020C941D020C941D0278037B031A
:1000B0006A036E0374039C039C039C037F03830306
:1000C00087038D0391039C039703302E302E302E2F
:1000D00030003132372E302E302E3100000000003B
:1000E000240027002A002D0030000000000023001B
:1000F000260029002C002F000000000200090F003C
:1001000000030401000C00000000000000000000DB
:100110000000000000000072756E2D627269646755
:10012000650A000A000A002E2E2E203D2065746309
:100130002028646570656E647320686F77206D6138
:100140006E792073656E736F7273206172652063C0
:100150006F6E6E656374656429003B203D20616E9F
:100160006F746865722067726F7570206F66206D9E
:100170006561737572656D656E740A002C203D2093
:10018000736570617261746F7220696E2073616D46
:10019000652067726F7570206F662073656E736F70
:1001A00072730A004D53785F44203D20646967698B
:1001B00074616C2076616C75652066726F6D206D60
:1001C00061676E6574696320737769746368206E14
:1001D000756D62657220780A00532647325F4420AD
:1001E0003D206469676974616C2076616C75652077
:1001F00066726F6D20736D6F6B6520616E64206732
:1002000061732073656E736F72206E756D626572B7
:1002100020780A00532647785F41203D20616E61B7
:100220006C6F672076616C75652066726F6D2073E8
:100230006D6F6B6520616E64206761732073656EFE
:10024000736F72206E756D62657220780A000A50B5
:100250004952785F44203D206469676974616C206D
:1002600076616C75652066726F6D20504952206E04
:10027000756D62657220780A00504952315F442CD6
:10028000504952325F442C2E2E2E3B532647315F6D
:10029000412C532647325F412C2E2E2E3B532647AE
:1002A000315F442C532647325F442C2E2E2E3B4D7B
:1002B00053315F442C4D53325F442C2E2E2E0A00B6
:1002C0004F757470757420697320666F726D6174F8
:1002D00074656420696E2074686973207761793A67
:1002E0000A0073746174650A76616C7565730A64DB
:1002F000656275670A74696D650A76616C75657308
:1003000048656C700A636F6D6D616E64730A0057A7
:10031000726F6E6720636F6D6D616E6400080B0015
:10032000020202010009040000010202000005248B
:100330000010010524010101042402060524060021
:10034000010705810310004009040100020A0000B2
:100350000007050202400000070583024000000478
:1003600003090412010002EF020140412341800011
:10037000010102030141726475696E6F204C4C43A8
:100380000041726475696E6F2059756E000307062F
:1003900005040100080A0B0C0D09040802011040B5
:1003A00080401020408040800802040180402010DE
:1003B000020110801020404020000000002500288D
:1003C000002B002E00310004040404040304050281
:1003D00002020204030202020206060606060604E0
:1003E000040202020404941C901611241FBECFEFD5
:1003F000DAE0DEBFCDBF15E0A0E0B1E0E4EFF0E46D
:1004000002C005900D92A43AB107D9F727E0A4EAFB
:10041000B5E001C01D92A937B207E1F711E0C4EFC2
:10042000D1E004C02197FE010E943E1EC33FD107C8
:10043000C9F70E9491160C946D200C940000CF9285
:10044000DF92EF92FF920F931F93CF93DF936C0194
:100450007A018B01C0E0D0E0CE15DF0589F0D8012C
:100460006D918D01D601ED91FC910190F081E02D0F
:10047000C6010995892B11F47E0102C02196ECCFAB
:10048000C701DF91CF911F910F91FF90EF90DF9007
:10049000CF900895FC01538D448D252F30E0842F9B
:1004A00090E0821B930B541710F0CF96089501979C
:1004B0000895FC01918D828D981761F0828DDF0186
:1004C000A80FB11D5D968C91928D9F5F9F73928F47
:1004D00090E008958FEF9FEF0895FC01918D828D3C
:1004E000981731F0828DE80FF11D858D90E0089509
:1004F0008FEF9FEF0895FC01918D228D892F90E061
:10050000805C9F4F821B91098F73992708958AE21F
:1005100096E00E947B0221E0892B09F420E0822FE3
:100520000895FC01848DDF01A80FB11DA35ABF4FB0
:100530002C91848D90E001968F739927848FA689E2
:10054000B7892C93A089B1898C9180648C93938D09
:10055000848D981306C00288F389E02D80818F7DF9
:1005600080830895EF92FF920F931F93CF93DF93B1
:10057000EC0181E0888F9B8D8C8D981305C0E889F4
:10058000F989808185FD24C0F62E0B8D10E00F5F68
:100590001F4F0F731127E02E8C8DE8120CC00FB681
:1005A00007FCFACFE889F989808185FFF5CFCE0174
:1005B0000E949102F1CF8B8DFE01E80FF11DE35AED
:1005C000FF4FF0820B8FEA89FB898081806207C030
:1005D000EE89FF896083E889F9898081806480835E
:1005E00081E090E0DF91CF911F910F91FF90EF900C
:1005F0000895CF93DF93EC01888D8823C9F0EA89B1
:10060000FB89808185FD05C0A889B9898C9186FD0B
:100610000FC00FB607FCF5CF808185FFF2CFA88908
:10062000B9898C9185FFEDCFCE010E949102E7CF71
:10063000DF91CF91089580E090E0892B29F00E940E
:10064000870281110C9400000895CF93DF931F92CD
:10065000CDB7DEB76983DC01ED91FC910280F381B7
:10066000E02D41E050E0BE016F5F7F4F09950F9094
:10067000DF91CF91089583E08093E9008091F200AB
:10068000882319F08AE38093E8000895FC018485AB
:10069000958597FD0BC09FB7F89482E08093E900A1
:1006A0008091F2009FBF90E0019608959FB7F89463
:1006B00082E08093E9008091F2009FBF90E008956E
:1006C00090E0FC013197EF30F105B0F5EA5AFF4FA9
:1006D0000C943E1E809180008F7703C08091800033
:1006E0008F7D80938000089580918000877FF9CF6F
:1006F00084B58F7702C084B58F7D84BD08958091C5
:1007000090008F7707C0809190008F7D03C080910B
:100710009000877F8093900008958091C0008F772C
:1007200003C08091C0008F7D8093C00008958091A8
:10073000C200877F8093C20008953FB7F8948091EC
:10074000B8059091B905A091BA05B091BB0526B541
:10075000A89B05C02F3F19F00196A11DB11D3FBFF9
:10076000BA2FA92F982F8827820F911DA11DB11D87
:10077000BC01CD0142E0660F771F881F991F4A9583
:10078000D1F708950895FB012785FC012787FB0118
:100790002685FC0126870895FC0187850895089524
:1007A00080E090E008950E946B1690E008950F930A
:1007B0001F93CF93DF931F92CDB7DEB78C01FC015F
:1007C0008485958597FF0EC0CE0101960E94411643
:1007D000019719F4298130E002C02FEF3FEFF801B3
:1007E00035872487F801848595850F90DF91CF9117
:1007F0001F910F910895CF93DF931F92CDB7DEB76E
:10080000FC018485958597FD05C02FEF3FEF358767
:1008100024870BC0CE0101960E944116019719F45E
:10082000898190E002C08FEF9FEF0F90DF91CF9111
:100830000895AF92BF92CF92DF92EF92FF920F9303
:100840001F93CF93DF9300D0CDB7DEB7FC01878530
:100850008823B1F05A019B018CE6898386858A83BF
:10086000C12CD12CE12CF12C8A0142E050E0BE01D8
:100870006F5F7F4F848595850E942B12C50102C052
:1008800080E090E00F900F90DF91CF911F910F913A
:10089000FF90EF90DF90CF90BF90AF900895AF9210
:1008A000BF92CF92DF92EF92FF920F931F93CF935D
:1008B000DF93CDB7DEB72A970FB6F894DEBF0FBE31
:1008C000CDBF5C018EE48F83F50186819781988787
:1008D00089871A8219821C821B821E821D8262ED08
:1008E00070E0CE0101960E94E50DF5018185811130
:1008F00006C06AEC70E0CE0101960E94E50D0D8104
:100900001E8129813A81CC24C394D12CCE010A9630
:100910007C0143E050E0BE01695F7F4FF5018481B7
:1009200095810E942B1281E09A85913009F080E038
:10093000F5018087CE0101960E940D0E2A960FB612
:10094000F894DEBF0FBECDBFDF91CF911F910F9105
:10095000FF90EF90DF90CF90BF90AF900895EF920F
:10096000FF920F931F93CF93DF93CDB7DEB72897F6
:100970000FB6F894DEBF0FBECDBF7C018B0164EBD8
:1009800074E0CE0101964F8358870E945C0E62E1AD
:1009900070E0CE0101960E940C0DD80112966C9168
:1009A000CE0101960E94910D6EE2CE0101960E9449
:1009B000BC0DF8016381CE0101960E94910D6EE29B
:1009C000CE0101960E94BC0DD80114966C91CE0107
:1009D00001960E94910D6EE2CE0101960E94BC0D1F
:1009E000F8016581CE0101960E94910DD701ED912C
:1009F000FC9169817A810088F189E02D4F815885C9
:100A0000C70109958C01CE0101960E940D0EC80107
:100A100028960FB6F894DEBF0FBECDBFDF91CF9101
:100A20001F910F91FF90EF900895DC01ED91FC91E3
:100A30000190F081E02D09948F929F92AF92BF9226
:100A4000CF92DF92EF92FF920F931F93CF93DF939A
:100A50007C018B016C0182E0C80ED11C4701E5E0EE
:100A60008E0E911CC0E0D0E0F60141916F0150E084
:100A700060E070E02AE0C8010E94CE115C016EE2E5
:100A8000C8010E9415058A0D9B1DC80FD91FC814E7
:100A9000D90451F7F701458150E060E070E02AE0A9
:100AA000C8010E94CE118C0F9D1FDF91CF911F9125
:100AB0000F91FF90EF90DF90CF90BF90AF909F90FD
:100AC0008F900895DC01ED91FC91DB0114964D911E
:100AD0005C9115976D917C910280F381E02D0994D2
:100AE000EF92FF920F931F93CF93DF938C017B01C3
:100AF000C0E0D0E0F701EC0FFD1F6491662361F0C8
:100B0000D801ED91FC910190F081E02DC80109958B
:100B1000892B11F02196EECFCE01DF91CF911F915D
:100B20000F91FF90EF9008956115710579F0FB0129
:100B300001900020E9F73197AF01461B570BDC010C
:100B4000ED91FC910280F381E02D099480E090E02A
:100B500008951F920F920FB60F9211242F933F9377
:100B60004F935F936F937F938F939F93AF93BF93B5
:100B7000EF93FF938AE296E00E949102FF91EF913A
:100B8000BF91AF919F918F917F916F915F914F91A5
:100B90003F912F910F900FBE0F901F9018951F92AD
:100BA0000F920FB60F9211242F938F939F93EF9371
:100BB000FF93E0913A06F0913B068081E091400678
:100BC000F091410682FD12C09081809143068F5FB3
:100BD0008F7320914406821751F0E0914306F0E0B4
:100BE000E65DF94F958F8093430601C08081FF91A8
:100BF000EF919F918F912F910F900FBE0F901F90AB
:100C00001895CF93DF93282F30E0F901E850FF4F7C
:100C10008491F901E656FC4FD491F901E953FC4F58
:100C2000C491CC2391F081110E946003EC2FF0E07D
:100C3000EE0FFF1FE651FF4FA591B491EC91ED230C
:100C400081E090E021F480E002C080E090E0DF915C
:100C5000CF9108958CE00E94010621E0892B09F0D4
:100C600020E0822F08951F93CF93DF93282F30E049
:100C7000F901E850FF4F8491F901E656FC4FD491F9
:100C8000F901E953FC4FC491CC23C9F0162F81110F
:100C90000E946003EC2FF0E0EE0FFF1FE754FC4FC3
:100CA000A591B4918FB7F894111105C09C91ED2FC7
:100CB000E095E92302C0EC91ED2BEC938FBFDF911F
:100CC000CF911F910895CF93DF9390E0FC01E656FA
:100CD000FC4F2491FC01E953FC4F8491882361F17E
:100CE00090E0880F991FFC01E452FF4FC591D49109
:100CF000FC01E754FC4FA591B491611109C09FB765
:100D0000F8948881209582238883EC912E230BC050
:100D1000623061F49FB7F8943881822F80958323E5
:100D20008883EC912E2B2C939FBF06C08FB7F8942D
:100D3000E8812E2B28838FBFDF91CF9108958F926A
:100D40009F92AF92BF92CF92DF92EF92FF926B0190
:100D50007C010E949D034B015C01C114D104E1049C
:100D6000F104F1F00E949D03DC01CB01881999097F
:100D7000AA09BB09883E9340A105B10570F321E0A3
:100D8000C21AD108E108F10888EE880E83E0981EA7
:100D9000A11CB11CC114D104E104F10419F7DDCF89
:100DA000FF90EF90DF90CF90BF90AF909F908F908B
:100DB00008958F929F92AF92BF92CF92DF92EF925F
:100DC000FF920F931F93CF93DF935C016B017A0126
:100DD00080910B01882309F45BC080914C07882324
:100DE00009F456C08091BD0580FF05C08091E000E8
:100DF00082608093E000E70110E00AEF83E0882E34
:100E00009AE3992E2097D9F10E946B1681110AC09E
:100E1000015009F43DC061E070E080E090E00E9484
:100E20009F06F0CF282F30E0C217D3070CF48C2F89
:100E30004FB7F8948092E9009091E80095FF1DC0AB
:100E4000282F30E0C21BD30BF601982F915020F0D1
:100E500081918093F100FACFC20ED31E112319F0B5
:100E60009092E80009C08091E80085FD06C090924C
:100E7000E80011E0209709F010E04FBFC3CF111137
:100E8000C3CF5D9884E68093D1051E141F0444F0FF
:100E900081E090E0F5019383828380E090E001C0DF
:100EA000C701DF91CF911F910F91FF90EF90DF90DD
:100EB000CF90BF90AF909F908F9008952FB7F894E8
:100EC0006091B4057091B5058091B6059091B70514
:100ED0002FBF08951F920F920FB60F9211242F93D8
:100EE0003F938F939F93AF93BF938091B40590915D
:100EF000B505A091B605B091B7053091B30523E0D3
:100F0000230F2D3720F40196A11DB11D05C026E841
:100F1000230F0296A11DB11D2093B3058093B40544
:100F20009093B505A093B605B093B7058091B80529
:100F30009091B905A091BA05B091BB050196A11D8C
:100F4000B11D8093B8059093B905A093BA05B093ED
:100F5000BB05BF91AF919F918F913F912F910F90C2
:100F60000FBE0F901F901895CF93DF93EC018D81EA
:100F70009E81DC01ED91FC910084F185E02D0995C5
:100F80001816190654F48D819E81DC01ED91FC91B7
:100F90000284F385E02D0995EACFDF91CF91089582
:100FA0008F929F92AF92BF92CF92DF92EF92FF9279
:100FB000CF93DF93EC016B010E945E074B015C0154
:100FC000E12CF12C8D819E81DC01ED91FC9102845C
:100FD000F385E02D099597FF0FC00E945E07DC01A5
:100FE000CB0188199909AA09BB098C159D05AE0585
:100FF000BF0540F38FEF9FEFDF91CF91FF90EF9010
:10100000DF90CF90BF90AF909F908F900895FC019C
:10101000238134812627022E2295207F2025032E2E
:10102000322F22952F700226269532272327220F52
:10103000220F220F2025348323830895CF92DF923D
:10104000EF92FF920F931F936801790100E010E087
:1010500020E030E00E942B121F910F91FF90EF9043
:10106000DF90CF900895AF92BF92CF92DF92EF9230
:10107000FF920F931F93CF93DF93CDB7DEB72797E0
:101080000FB6F894DEBF0FBECDBF5C019B0183E4B9
:1010900089835A834B83FB0101900020E9F7319744
:1010A0008F01061B170BCC24C394D12CCE010796BD
:1010B0007C0143E050E0BE016F5F7F4FD5011C967D
:1010C0008D919C911D970E942B12892BC1F18F81CC
:1010D000F501868793E69C838D8301E010E09E01F5
:1010E0002A5F3F4F42E050E0BE016C5F7F4FD50169
:1010F0001C968D919C911D970E941E088E818823BD
:1011000039F061E070E080E090E00E949F06E5CF5A
:1011100081E0F50187870190F081E02D0688F7894D
:10112000E02DC501099581110DC0D501ED91FC910E
:101130000488F589E02DC5010995F501168680E042
:1011400090E002C081E090E027960FB6F894DEBFF1
:101150000FBECDBFDF91CF911F910F91FF90EF9008
:10116000DF90CF90BF90AF900895EF92FF920F93D2
:101170001F93CF93DF9300D01F92CDB7DEB7DC0172
:101180001F962C911F97222301F17C01ED91FC9178
:101190000084F185E02D0995892BC9F48CE48983BD
:1011A000F70186858A8301E010E09E012D5F3F4FA5
:1011B00042E050E0BE016F5F7F4F848595850E94BD
:1011C0001E0881E09B81913019F080E001C081E030
:1011D0000F900F900F90DF91CF911F910F91FF9083
:1011E000EF900895EF92FF920F931F93CF93DF93A9
:1011F00000D01F92CDB7DEB7FC012089211118C0A5
:101200007C01118A8BE4898380E48B8386858A83C1
:101210009F012E5E3F4F00E410E043E050E0BE012E
:101220006F5F7F4F848595850E941E08F701808B34
:101230000F900F900F90DF91CF911F910F91FF9022
:10124000EF900895CF93DF93EC010E94F208888914
:10125000882331F08989C80FD11D8A8990E002C0A6
:101260008FEF9FEFDF91CF910895CF92DF92EF92B2
:10127000FF920F931F93CF93DF93EC016A017B01E1
:1012800000E010E08889811106C0CE010E94F208BA
:101290008889882399F00F5F1F4F898991E0980F03
:1012A000998BFE01E80FF11D8289F70181937F017F
:1012B00088898150888B0C151D0520F3C801DF91AA
:1012C000CF911F910F91FF90EF90DF90CF900895F5
:1012D000CF93DF93EC010E94F2088889882359F0AC
:1012E0008150888B898991E0980F998BC80FD11D07
:1012F0008A8990E002C08FEF9FEFDF91CF91089530
:10130000CF93DF93EC010E94F208888990E0DF918F
:10131000CF9108950F931F9300E010E020E030E09C
:101320000E941E081F910F910895CF93DF9300D064
:10133000CDB7DEB722E629836A8342E050E0BE01E2
:101340006F5F7F4FFC01848195810E948A0981E053
:1013500090E00F900F90DF91CF910895CF93DF939E
:1013600000D01F92CDB7DEB7FC012785222389F07C
:101370008CE6898386858A836B8343E050E0BE01D7
:101380006F5F7F4F848595850E948A0981E090E098
:1013900002C080E090E00F900F900F90DF91CF910E
:1013A00008950F931F93CF93DF9300D0CDB7DEB78F
:1013B0008C01FC018785882369F08AE6898386850C
:1013C0008A8342E050E0BE016F5F7F4F8485958540
:1013D0000E948A09F8011786108A118A0F900F90CF
:1013E000DF91CF911F910F910895CF93C82F8A302D
:1013F00028F460E387EC96E00E9415054C2F50E03E
:1014000060E070E02AE087EC96E0CF910C94CE117A
:101410009093C4058093C3050E945E076093CB053B
:101420007093CC058093CD059093CE050895CF930E
:10143000DF930E942A06882329F1C4E1D0E00E94AC
:101440002A068823A1F06AE570E080E090E00E941F
:101450009F062197A1F781E090E00E94080A6FE9BA
:1014600073E08AED95E00E9417120E9492140E9488
:101470002A06882339F06AE070E080E090E00E945C
:101480009F06F5CFDF91CF910895CF92DF92EF9233
:10149000FF92CF930E942A06C82F8823A9F0C090FC
:1014A000AF05D090B005E090B105F090B2050E9474
:1014B0005E07DC01CB018C199D09AE09BF09893B90
:1014C0009B40A105B10510F4C0E011C00E945E0769
:1014D0006093AF057093B0058093B1059093B2050A
:1014E0000E942A0690E09093AE058093AD058C2F64
:1014F000CF91FF90EF90DF90CF900895DC01FB013A
:101500008281938113969C938E9312974481558187
:101510006681778114964D935D936D937C931797B5
:10152000408551856285738518964D935D936D93C3
:101530007C931B978DE593E011969C938E93848505
:1015400095851D969C938E931C9786851E968C93ED
:101550001E9787851F968C931F97808950968C9332
:101560005097818951968C93519780E47296529648
:1015700001900D928A95E1F70895CF92DF92EF9254
:10158000FF920F931F93CF93DF93EC0164EB74E012
:101590000E945C0E6EE372E0CE010E94CF0D65ECFE
:1015A00075E086E892E00E94B51386E8E82E82E0B6
:1015B000F82E95ECC92E95E0D92E00E010E06CE2F3
:1015C00072E0CE010E94CF0DB801CE010E94610DE4
:1015D00062E272E0CE010E94CF0DF701619171913C
:1015E0007F01CE010E94610DF60181916F01811191
:1015F00003C067E072E002C06BEE71E0CE010E94B2
:10160000CF0D0130110519F001E010E0D8CFCE0167
:10161000DF91CF911F910F91FF90EF90DF90CF90CE
:101620000895AF92BF92CF92DF92EF92FF920F9305
:101630001F93CF93DF93EC0164EB74E00E945C0E88
:1016400065EC71E0CE010E94CF0D69EC75E082E897
:1016500092E00E94B51399ECA92E95E0B92E22E8EC
:10166000C22E22E0D22E09EA15E0E12CF12CF50180
:1016700081915F01882309F440C060EC71E0CE01E4
:101680000E94CF0DB701CE010E94610D62E272E0AF
:10169000CE010E94CF0DF60160817181CE010E94C2
:1016A000610D61EA71E0CE010E94CF0DF8018081E9
:1016B000918101969183808364E871E08AED95E0E1
:1016C0000E9494056091A9057091AA05CE010E941F
:1016D000610D67E875E0CE010E94CF0D6091AB050A
:1016E0007091AC05CE010E94610D67E875E0CE01F6
:1016F0000E94CF0D63EB74E002C06AE671E0CE0198
:101700000E94CF0DF2E0CF0ED11C0E5F1F4FEA9466
:10171000EF2821F0EE24E394F12CA9CFCE01DF9144
:10172000CF911F910F91FF90EF90DF90CF90BF90DE
:10173000AF9008958F929F92AF92BF92CF92DF9217
:10174000EF92FF920F931F93CF93DF93EC0164EB23
:1017500074E00E945C0E6CE371E0CE010E94CF0D3C
:1017600067EC75E08AE792E00E94B5130E94D213FD
:1017700086EDE82E85E0F82E9EE7C92E92E0D92E60
:101780002FEBA22E25E0B22E00E010E067E271E020
:10179000CE010E94CF0DB801CE010E94610D63E120
:1017A00071E0CE010E94CF0D4701F7016191719167
:1017B0007F01CE010E94610DF601219131916F01EF
:1017C000F501819191915F01820F931FF4012081B6
:1017D0003181821793071CF46AEB73E002C06EEC50
:1017E00073E0CE010E94CF0D0130110519F001E028
:1017F00010E0CCCFCE01DF91CF911F910F91FF90E0
:10180000EF90DF90CF90BF90AF909F908F90089512
:101810000E944F20FC0124813581232B31F421E0EB
:1018200061157105A1F0FB0108C0FC018081918167
:101830006115710531F421E0FC018081882339F0C4
:1018400005C00E945D2021E0892B09F020E0822F55
:1018500008954091D4055091D5052091D20530913D
:10186000D30542175307B4F49091E8009570E1F363
:101870009091E80092FD19C08093F1008091D40509
:101880009091D50501968F739927892B19F48EEFC6
:101890008093E8008091D4059091D50501969093AE
:1018A000D5058093D40581E0089580E00895CF9216
:1018B000DF92EF92FF920F931F93CF93DF931F92CC
:1018C000CDB7DEB7182F062FE42E862F880F8E5F38
:1018D00099830E94290C83E00E94290CF12EC12ECD
:1018E0009981D92E8C2D8F19801798F4F601E7FE77
:1018F00002C0849101C080810E94290C182F80E0D1
:101900000E94290C8123FFEFCF1ADF0A8111EACF51
:1019100001C081E00F90DF91CF911F910F91FF9057
:10192000EF90DF90CF900895DF92EF92FF920F93A8
:101930001F93CF93DF93D82E8A017B01E40EF51E0F
:10194000EB01CE15DF0571F0D7FE03C0FE018491D7
:1019500001C088810E94290C21968111F2CF8FEF5E
:101960009FEF01C0C801DF91CF911F910F91FF90B0
:10197000EF90DF900895615030F02091F100FC016C
:1019800020830196F8CF289884E680934B0708952A
:10199000CF93DF93EC0188819981009711F00E9429
:1019A000ED1E198218821D821C821B821A82DF9111
:1019B000CF9108950F931F93CF93DF931F92CDB7CD
:1019C000DEB782E0898342E450E06DE173E080E8B5
:1019D0000E94940C0E947C16DC0112960D911C91C1
:1019E00013970115110569F0D801ED91FC91028062
:1019F000F381E02DBE016F5F7F4FC801099597FF0E
:101A000007C089810F90DF91CF911F910F910895A9
:101A1000F80100851185E5CF0F931F93CF93DF93D6
:101A2000EC0188819981009729F02A813B81261752
:101A3000370788F48B016F5F7F4F0E94851F0097E7
:101A400061F0998388831B830A832C813D81232B3A
:101A500011F4FC01108281E001C080E0DF91CF91A0
:101A60001F910F910895EF92FF920F931F93CF93C1
:101A7000DF93FC01248135816115710511F480E04B
:101A800019C041155105A9F07B01EC018A01020F33
:101A9000131FB8010E940C0D882389F32881398116
:101AA0008C819D81B701820F931F0E9466201D8348
:101AB0000C8381E0DF91CF911F910F91FF90EF9008
:101AC0000895EF92FF920F931F93CF93DF93CDB7BB
:101AD000DEB728970FB6F894DEBF0FBECDBF7C01EE
:101AE000CB014AE08E010F5F1F4FB8010E94571DC6
:101AF000F80101900020E9F73197AF01401B510B2D
:101B0000B801C7010E94330D28960FB6F894DEBFC6
:101B10000FBECDBFDF91CF911F910F91FF90EF903E
:101B20000895EF92FF920F931F93CF93DF9300D00E
:101B300000D0CDB7DEB77C01862F4AE08E010F5F63
:101B40001F4FB80190E00E94571DF801019000203E
:101B5000E9F73197AF01401B510BB801C7010E9453
:101B6000330D0F900F900F900F90DF91CF911F9139
:101B70000F91FF90EF900895CF93DF9300D0CDB7F2
:101B8000DEB769831A8241E050E0BE016F5F7F4F8C
:101B90000E94330D0F900F90DF91CF910895611542
:101BA000710551F0FB0101900020E9F73197AF0179
:101BB000461B570B0C94330D80E00895FB014481C4
:101BC0005581608171810C94330DEF92FF920F93D8
:101BD0001F93CF93DF93EC018B016115710551F0D9
:101BE000CB010E94431D7C01BC01CE010E940C0D63
:101BF000811104C0CE010E94C80C07C0FD82EC8296
:101C0000B801888199810E943C1DCE01DF91CF915E
:101C10001F910F91FF90EF900895FC0180819181B9
:101C20000C94ED1ECF92DF92EF92FF920F931F93D1
:101C3000CF93DF93CDB7DEB762970FB6F894DEBFD0
:101C40000FBECDBF8C01CB01F8011182108213822F
:101C500012821582148250E09E012F5F3F4F69016E
:101C6000B9010E944C1DF60101900020E9F731975F
:101C70007F01EC18FD08B701C8010E940C0D81110D
:101C800004C0C8010E94C80C08C0F801F582E482B3
:101C9000B601808191810E94662062960FB6F89409
:101CA000DEBF0FBECDBFDF91CF911F910F91FF908F
:101CB000EF90DF90CF900895EF92FF920F931F93D4
:101CC000CF93DF93EC01198218821B821A821D8246
:101CD0001C826115710521F18B01FB01019000202F
:101CE000E9F731977F01E61AF70AB7010E940C0D58
:101CF000811109C0CE01DF91CF911F910F91FF900B
:101D0000EF900C94C80CFD82EC82B8018881998117
:101D1000DF91CF911F910F91FF90EF900C9466206F
:101D2000DF91CF911F910F91FF90EF9008951F9237
:101D30000F920FB60F9211248F939F938091E10021
:101D40009091E100937F9093E10083FF0FC0109288
:101D5000E90091E09093EB001092EC0092E39093F5
:101D6000ED0010924C0798E09093F00082FF20C0A5
:101D700093E09093E9009091F200992319F09AE38F
:101D80009093E8009091D105992339F09091D10575
:101D900091509093D105992389F190914B07992304
:101DA00039F090914B07915090934B07992341F153
:101DB00084FF10C08091E2008E7E81608093E200FB
:101DC0008091E1008F7E8093E1008091BD058E7E41
:101DD000806111C080FF16C08091E2008E7E80611C
:101DE0008093E2008091E1008E7E8093E1008091FB
:101DF000BD058E7E81608093BD0504C05D9ACDCF08
:101E0000289AD6CF9F918F910F900FBE0F901F9061
:101E100018951F920F920FB60F921124CF92DF9256
:101E2000EF92FF920F931F932F933F934F935F93E4
:101E30006F937F938F939F93AF93BF93EF93FF9392
:101E4000CF93DF93CDB7DEB76C97DEBFCDBF1092D7
:101E5000E9008091E80083FFEDC168E0CE0145967E
:101E60000E94BB0C82EF8093E8008D8987FF05C03C
:101E70009091E80090FFFCCF03C09EEF9093E800A4
:101E8000982F907609F0C6C09E892F89188D9111E0
:101E90000CC0803829F48091BE058093F10002C007
:101EA0001092F1001092F10048C1422F50E0512BE6
:101EB000913051F4811141C14130510509F03DC1CA
:101EC0008091BE058D7F0BC0933061F4811135C1C7
:101ED0004130510509F031C18091BE058260809387
:101EE000BE052BC1953041F48091E80080FFFCCF06
:101EF00020682093E30021C1963009F05FC0EB8C8D
:101F0000FC8C1092E9001092D5051092D405123085
:101F100091F51092D3051092D2050E94DA0C99E047
:101F2000BE016F5F7F4FDB01E92F1D92EA95E9F754
:101F300099831A8391E09E8390EA98879AEF998714
:101F40002091D4053091D505275F3F4F3C832B83EB
:101F50008D831092E9001092D5051092D405F0926D
:101F6000D305E092D20549E050E080E00E94940C55
:101F70000E94DA0CE2C0F092D305E092D2050E94F2
:101F80007C16DC011296ED90FC901397E114F1049D
:101F900009F4C0C0D701ED91FC910480F581E02DDA
:101FA000BE016B5E7F4FC7010995009719F00CF0D9
:101FB000C4C0C7C0F701E084F184E8CF973009F4CA
:101FC000C0C0983021F481E08093F100B6C0993010
:101FD00009F0B3C0837009F0B4C0EBEFF2E081E028
:101FE00021E036E39081992361F08093E90020930A
:101FF000EB0091919093EC003093ED008F5F873070
:1020000089F78EE78093EA001092EA008F89809327
:102010004C0793C08B8D9C8D1092E9001092D505D2
:102020001092D4059093D3058093D205898D8111A8
:1020300056C08E899D89913A59F4813209F081C048
:1020400047E050E064E071E080E00E94940C75C0CD
:10205000913209F076C0833289F4888D90E0982F10
:1020600088272F89822BA0E0B0E080930001909315
:102070000101A0930201B09303015FC0803269F4B3
:102080008091E80082FFFCCF67E084E091E00E944D
:10209000BB0C8BEF8093E80006C0823209F04DC084
:1020A0008F8980930B018091BC05882319F0EEEF96
:1020B000FAE002C0E0E0F8E08091040190910501AF
:1020C000A0910601B0910701803B9440A105B105A4
:1020D00009F07BC080910B0180FF93C076C00E9405
:1020E0007C16DC0112960D911C91139701151105B8
:1020F00041F1D801ED91FC910190F081E02DBE01FC
:102100006B5E7F4FC8010995811117C0F8010085EA
:102110001185ECCF113009F44EC0133091F48F8942
:10212000882309F445C0823081F440E86BE081E8FF
:1021300093E00E94570C882321F08EEF8093E800F3
:1021400079C081E28093EB0075C0813029F440E8CA
:102150006BE085E793E0EDCF833099F70E947C1622
:10216000DC011296ED90FC9013978E010F5F1F4FCC
:102170006801E114F10479F0D701ED91FC9106803A
:10218000F781E02DB801C7010995080F111DF7016E
:10219000E084F184EECFD8011C92F601019000207A
:1021A000E9F73197BF016C197D0940E0C601C1CF45
:1021B0006FE573E002C063E673E06115710509F233
:1021C000FB01449150E080E840CF0FB6F894A89509
:1021D00080916000886180936000109260000FBE63
:1021E000A895EE3F2AE0F20739F08091FE0A90911F
:1021F000FF0A91838083A1CF1092FF0A1092FE0AFA
:102200009CCFEE3F8AE0F80731F080819181909376
:10221000FF0A8093FE0A87E797E7918380839BE01C
:1022200088E10FB6F894A895809360000FBE909354
:10223000600083CF6C960FB6F894DEBF0FBECDBFA3
:10224000DF91CF91FF91EF91BF91AF919F918F91CE
:102250007F916F915F914F913F912F911F910F91BE
:10226000FF90EF90DF90CF900F900FBE0F901F90D8
:1022700018951F920F920FB60F9211242F933F9330
:102280008F939F93AF93BF93EF93FF9380915007EA
:1022900090915107A0915207B0915307892B8A2B37
:1022A0008B2B51F180914D07E0914E07F0914F0734
:1022B0009081892780838091500790915107A09148
:1022C0005207B0915307181619061A061B064CF54B
:1022D0008091500790915107A0915207B0915307F8
:1022E0000197A109B1098093500790935107A093DA
:1022F0005207B093530715C0809171008D7F809372
:10230000710090914D07E0914E07F0914F07808149
:10231000282F30E0892F90E0809590958223932399
:102320008083FF91EF91BF91AF919F918F913F91EA
:102330002F910F900FBE0F901F9018950F931F9322
:10234000CF93DF93EC010E945E07688779878A87C5
:102350009B87E881F9810284F385E02DCE01099500
:1023600097FF17C00E945E07088519852A853B855F
:10237000DC01CB01801B910BA20BB30B0C811D81E7
:102380002E813F8180179107A207B30710F38FEFCB
:102390009FEFDF91CF911F910F9108954F925F9220
:1023A0006F927F92EF92FF920F931F93CF93DF93E1
:1023B000CDB7DEB7A1970FB6F894DEBF0FBECDBF85
:1023C0007C01FA01CB0119A2223008F42AE08E0127
:1023D0000F5D1F4F422E512C612C712CBF01A301A8
:1023E00092010E94F91DF901CA01015011096A30D8
:1023F00014F4605D01C0695CD8016C93232B242B1D
:10240000252B61F7B801C7010E949405A1960FB66C
:10241000F894DEBF0FBECDBFDF91CF911F910F911A
:10242000FF90EF907F906F905F904F9008950F9383
:102430001F93CF93DF93EC010E9494058C0162EB14
:1024400074E0CE010E949405800F911FDF91CF911F
:102450001F910F9108952F923F924F925F926F922A
:102460007F928F929F92AF92BF92CF92DF92EF9224
:10247000FF920F931F93CF93DF93CDB7DEB72B97C8
:102480000FB6F894DEBF0FBECDBF9B878A875B0176
:102490001901FD82EC823A01600E711E872C7B824D
:1024A000912C44244A94542C9B01240F351F3F83C4
:1024B0002E839101200F311F39872887EA85FB85FC
:1024C0008085981608F036C1AA85BB8514965C9263
:1024D0004E92139715968D919C911697DC01ED9174
:1024E000FC910190F081E02D6FEF09956FEF8A85E7
:1024F0009B850E940708EA85FB8585819681DC0122
:10250000ED91FC910190F081E02DAA85BB856C9145
:102510000995EA85FB856081CF010E940708AA859D
:10252000BB8515968D919C911697DC01ED91FC91E0
:102530000190F081E02D682D09956B818A859B853E
:102540000E940708EA85FB8585819681DC01ED9173
:10255000FC910190F081E02D662D0995662D8A850C
:102560009B850E94070875012E813F81E216F306C4
:10257000B1F0EA85FB85858196818701DC01ED91CB
:10258000FC910190F081E02DD7016D917D010995BD
:10259000F80160818A859B850E940708E5CF71015B
:1025A000AA85BB8515968D919C91169728853985AE
:1025B000E216F30691F08701DC01ED91FC910190A8
:1025C000F081E02DD7016D917D010995F8016081C1
:1025D0008A859B850E940708E3CFDC01ED91FC9181
:1025E000AA85BB8514966C910190F081E02D099528
:1025F000EA85FB8585819681DC01ED91FC91019056
:10260000F081E02DAA85BB8513966C91099568EC45
:1026100070E08A859B850E94D0078F3F910509F065
:102620007DC0EA85FB85548243826FEFCF010E9413
:10263000070865E070E08A859B850E94D007AA851F
:10264000BB856C91262F30E08217930709F066C096
:10265000CD010E9407086AE070E08A859B850E9490
:10266000D0077C0197FD5AC0682F8A859B850E9400
:1026700007086AE070E08A859B850E94D0078C017C
:1026800097FD4CC0682F8A859B850E940708EA82C7
:102690001982E981FA810E0F1F1FE12CF12C65E0F0
:1026A00070E08A859B85E016F106A9F0EC14FD0424
:1026B00091F00E94D00797FD0AC0EC81FD81EE0DDC
:1026C000FF1D8083682F8A859B850E940708FFEF86
:1026D000EF1AFF0AE4CF0E94D0077C0197FD1EC0CD
:1026E00065E070E08A859B850E94D00797FD16C043
:1026F000FE2CEE248E0D9F1DAA85BB8513962D9171
:102700003C9114972817390749F48C918F5F8C936B
:10271000C801C016D10680F4C6010EC0939464E6C9
:1027200070E080E090E00E949F068A859B850E9471
:10273000B407C4CE8FEF9FEF2B960FB6F894DEBF91
:102740000FBECDBFDF91CF911F910F91FF90EF9002
:10275000DF90CF90BF90AF909F908F907F906F90C1
:102760005F904F903F902F9008950F931F93CF93BA
:10277000DF938C01EB01FC0180810E94010621E0C6
:10278000892B09F420E02883F80182810E94010648
:1027900021E0892B09F420E02983DF91CF911F915B
:1027A0000F910895CF93DF93A1E0B3E0C6EDD5E09C
:1027B000EC911296E23108F0E251F0E0E257FC4F62
:1027C000E49140917B00E3FB222720F930E0C9012E
:1027D00025E0880F991F2A95E1F7942F9F7D892B7B
:1027E00080937B00E770E064E0937C0080917A0046
:1027F000806480937A0080917A0086FDFCCF80917E
:1028000078004091790090E0942B8993999383E02C
:10281000A530B80769F6DF91CF910895CF92DF9286
:10282000EF92FF92CF93DF9300D000D000D0CDB7CE
:10283000DEB78091380781110EC081E080933807A0
:102840000E945E07609334077093350780933607C4
:10285000909337075AC0C0903407D0903507E09066
:102860003607F090370780EAC80E8FE0D81EE11CCB
:10287000F11C0E945E07C616D706E806F90608F0A6
:1028800044C0109238076DE775E08AED95E00E942C
:1028900094050E945E07AB01BC012AE08AED95E039
:1028A0000E94CE1169E875E08AED95E00E9417124A
:1028B000CE0101960E949A0BBE016F5F7F4F8AED99
:1028C00095E00E946205CE0101960E940D0ECE0198
:1028D00001960E94BD0ABE016F5F7F4F8AED95E0B1
:1028E0000E946205CE0101960E940D0ECE01019656
:1028F0000E94110BBE016F5F7F4F8AED95E00E9431
:102900006205CE0101960E940D0E26960FB6F89430
:10291000DEBF0FBECDBFDF91CF91FF90EF90DF9074
:10292000CF90089580910C01833009F5EDE8F3E034
:10293000E4918FEF80930C01E13071F050F0E330BF
:1029400089F0E430A1F4809172008F7B8093720053
:102950000EC010926E000BC080916F008D7F80932F
:102960006F0005C0809171008D7F8093710060E0E1
:1029700083E00C943306CF9380910C01833021F0D7
:102980008F3F09F025C104C0EDE8F3E0C4919CC07D
:1029900083E080930C01EDE8F3E0E491EF3F09F46C
:1029A00017C1E13009F449C0FCF4E1118CC014BC3A
:1029B00015BC84B5826084BD85B5816085BDEAECB7
:1029C000F3E0E491F0E0EE0FFF1FE754FC4F859138
:1029D00094919093680780936707EDE9F3E0E491A1
:1029E000E0936607C0E072C0E33009F449C0E43008
:1029F00009F069C01092C0001092C1008091C1001E
:102A000088608093C1008091C10081608093C10083
:102A1000EAECF3E0E491F0E0EE0FFF1FE754FC4F27
:102A2000859194919093620780936107EDE9F3E0BB
:102A3000E491E0936007C4E049C0109280001092D6
:102A40008100809181008860809381008091810065
:102A5000816080938100EAECF3E0E491F0E0EE0F16
:102A6000FF1FE754FC4F85919491909365078093E5
:102A70006407EDE9F3E0E491E0936307C1E026C069
:102A80001092900010929100809191008860809344
:102A9000910080919100816080939100EAECF3E0D5
:102AA000E491F0E0EE0FFF1FE754FC4F8591949105
:102AB00090934F0780934E07EDE9F3E0E491E093A4
:102AC0004D07C3E003C0CE2FC7FD82C061E083E0A5
:102AD0000E946306CC2309F465C0C23009F478C0B3
:102AE000C130E9F480918100887F8160809381000A
:102AF00084ED94E190938900809388008FEF9FEF9D
:102B0000DC0180936D0790936E07A0936F07B093DD
:102B1000700780916F00826080936F0059C0C3304E
:102B200039F480919100887F8160809391000FC07B
:102B3000C43039F48091C100887F81608093C100E6
:102B40001DC0C33021F0C43009F042C017C084ED6D
:102B500094E190939900809398008FEF9FEFDC01B0
:102B60008093500790935107A0935207B093530757
:102B7000809171008260809371002AC084ED8093FF
:102B8000CF008FEF9FEFDC018093690790936A0776
:102B9000A0936B07B0936C07809172008064809360
:102BA000720016C085B5887F836085BD82E587BDCC
:102BB0008FEF9FEFDC018093710790937207A093D2
:102BC0007307B093740780916E00826080936E00EB
:102BD000CF910895CF92DF92EF92FF920F931F93C0
:102BE000CF93DF9300D000D000D0CDB7DEB78C01FB
:102BF0006B0164EB74E00E945C0E7601C12CD12C59
:102C0000F70161917F0170E04AE0CE0101960E94D8
:102C1000120EBE016F5F7F4FC8010E94DE0DCE0114
:102C200001960E940D0EF1E0CF16D10419F46EEA60
:102C300074E002C060EB74E0CE0101960E945C0E6D
:102C4000BE016F5F7F4FC8010E94DE0DCE0101966D
:102C50000E940D0ECA94CD2821F0CC24C394D12C0F
:102C6000CFCFC80126960FB6F894DEBF0FBECDBFFA
:102C7000DF91CF911F910F91FF90EF90DF90CF9058
:102C80000895FC0180914C07811103C08FEF9FEFE5
:102C900008959FB7F89482E08093E9002091F200B4
:102CA00030E01216130614F421E030E0211531054E
:102CB00059F0289884E680934B078091F100808337
:102CC0008091F200882319F09FBFC90108958BE617
:102CD0008093E800F9CF2FB7F89483E08093E90060
:102CE0009091E800892F807295FF04C09091F200C6
:102CF00080E4891B2FBF08958091580781110DC072
:102D000082E08093540784E0809355071092570720
:102D10001092560781E08093580784E597E0089564
:102D20000895CF93DF93CDB7DEB7CC5BD1090FB653
:102D3000F894DEBF0FBECDBF789484B5826084BDA9
:102D400084B5816084BD85B5826085BD85B58160AF
:102D500085BD80916E00816080936E00109281002D
:102D600080918100826080938100809181008160E8
:102D700080938100809180008160809380008091A9
:102D80009100826080939100809191008160809396
:102D90009100809190008160809390008091C100AB
:102DA00084608093C1008091C10082608093C100E3
:102DB0008091C10081608093C1008091C3008160D7
:102DC0008093C3008091C00082608093C000809196
:102DD000C20081608093C20080917A0084608093F9
:102DE0007A0080917A00826080937A0080917A00E4
:102DF000816080937A0080917A00806880937A0065
:102E000010924C071092BE051092BD058091D7001C
:102E100081608093D70080EA8093D80089B5806173
:102E200089BD89B5826089BD09B400FEFDCF61E02E
:102E300070E080E090E00E949F068091D8008F7C37
:102E400080618093D8008091E000807F8093E000D3
:102E50008091E1008E7E8093E1008DE08093E2001E
:102E6000559A209AEEEFFFE7859194918B3F9C4D08
:102E700019F481E08093BC058FEF9FEF9093E705F5
:102E80008093E605E0912207F0912307A089B1899C
:102E900082E08C93A485B5851C92A685B78587E0D2
:102EA0008C93108EA489B58986E08C93A289B3890E
:102EB0008C9180618C93A289B3898C9188608C936A
:102EC000A289B3898C9180688C930288F389E02D64
:102ED00080818F7D8083809120078111D0C081E027
:102EE0008093200789E197E00E94B40768EE73E0C1
:102EF00080E090E00E949F0680911E0790911F073E
:102F0000DC01ED91FC910084F185E02D0995181606
:102F1000190644F375E0F72EEE24E394E2E3DE2E87
:102F2000E0E7F2E0DE01AD5ABF4F8F2D01900D9228
:102F30008A95E1F7E092210745E050E0BE016D5A25
:102F40007F4F89E197E00E948A0963E080911E0724
:102F500090911F070E9415056AEF70E080E090E0F5
:102F60000E949F0665E271E080911E0790911F0705
:102F70000E9470056AEF70E080E090E00E949F067A
:102F800063E271E080911E0790911F070E94700517
:102F900064EF71E080E090E00E949F0667E171E0DD
:102FA00080911E0790911F070E94700564EF71E0E9
:102FB00080E090E00E949F0689E197E00E94B407BC
:102FC000E5E7F2E0DE0111968F2D01900D928A95D2
:102FD000E1F7D092210704E010E09E012B553F4F0E
:102FE00045E050E0BE016F5F7F4F89E197E00E94AE
:102FF0001E088F3FBFEF9B0739F468EE73E080E057
:1030000090E00E949F068CCFCB55DF4F2881C55A98
:10301000D0402111FFCF049749F5CA55DF4F2881D1
:10302000C65AD04030E02053310984E6829FA00187
:10303000839F500D1124C955DF4F2881C75AD040B6
:1030400030E0205331096AE0629FC001639F900D18
:103050001124840F951FC855DF4F2881C85AD040CE
:1030600030E020533109820F931F02C084E690E0C4
:1030700090931B0780931A0782E38093210761E0F6
:103080008DE00E94630662E08CE00E94630661E0CE
:1030900083E00E9463060E94921462E08BE00E942B
:1030A000630662E08AE00E94630660E087E00E94B7
:1030B000630660E083E10E94630660E086E00E94B0
:1030C000630660E082E10E94630660E089E00E949E
:1030D000630660E088E00E9463060E945E0760313C
:1030E00078498240910508F0A4C067ED73E08AED4D
:1030F00095E00E94171250E1852E57E2952EA12CE3
:10310000B12C60E1462E68E9562E62E0662E712CE5
:103110000E945E07603178498240910508F042C004
:103120000E945E07A50194010E94F91D672B682B80
:10313000692B71F763E174E08AED95E00E949405D4
:103140000E945E079B01AC01A4E6B0E00E94B71D9F
:10315000A30192010E94981D69017A0157FF0EC0D8
:103160006DE28AED95E00E94150544275527BA01C6
:103170004C195D096E097F092AE003C02AE0B701F6
:10318000A6018AED95E00E94CE1168E174E08AED17
:1031900095E00E94171261E070E080E090E00E94EC
:1031A0009F06B6CF1092C4051092C30543E0C42E0B
:1031B000D12C0E94D213E090BF05F090C005809101
:1031C000D6059091D705E80EF91EF092C005E09261
:1031D000BF050091C1051091C2052091D80530911D
:1031E000D905020F131F1093C2050093C10565E0B6
:1031F0007DE080E090E00E949F0621E0C21AD108A5
:10320000C1F623E030E0C701B9010E942A1E709385
:10321000C0056093BF05C801B9010E942A1E7093C2
:10322000C2056093C1056AE174E08AED95E00E94F1
:1032300017126EE274E08AED95E00E94171281E0A9
:1032400080932D0784E297E00E944F0481E090E094
:103250009093C4058093C3059093D0058093CF05C8
:103260000E945E076093CB057093CC058093CD05DB
:103270009093CE0520EA222E2FE0322E412C512CA5
:103280003CE3832E912CA12CB12C0E94D21380916F
:10329000D6059091D70588978D35934008F0E6C202
:1032A0008091D8059091D90588978D35934008F085
:1032B000DDC28091CF059091D00582309105C9F192
:1032C0002CF4009769F0019749F15DC083309105B6
:1032D00009F448C0049709F056C00E940E1451C06A
:1032E0000E94D2138091BF059091C005C296209193
:1032F000D6053091D705821793070CF4CEC2809182
:10330000C1059091C205805B9F4F2091D8053091F7
:10331000D905821793070CF0C9C2BFC20E94450AA3
:10332000882389F180E090E00E94080A66E774E053
:10333000EAC20E940E140E945E07A20191010E943F
:10334000F91D672B682B692BE1F46BEC72E08AEDB9
:1033500095E00E94171261E070E080E090E00E942A
:103360009F060FC00E940E140E945E07A2019101E9
:103370000E94F91D672B682B692B19F46AE872E02B
:10338000E6CF0E94170A8091C3059091C4059093DF
:10339000D0058093CF0561E0019709F060E08DE0F2
:1033A0000E9433068BE664968FAF649701E010E0CD
:1033B0009E012F5F3F4F41E050E0BE016D5A7F4FAD
:1033C00080912807909129070E941E08892B19F0E7
:1033D000998181E002C080E090E08093D6069093CE
:1033E000D506882309F43FC267EC76E0CE018D5AFA
:1033F0009F4F0E947E0A64EB74E0CE0189549F4F78
:103400000E945C0ECE018D5A9F4F0E949E1197FD27
:1034100007C0682FCE0189549F4F0E94BC0DF2CF88
:10342000C954DF4FC880D980C75BD040C114D104D4
:1034300009F44DC0C554DF4F08811981CB5BD040E2
:103440000115110509F443C036017301EFEF6E1A3F
:103450007E0AD7018C91082E000C990B0E947C1DCE
:10346000892B99F7015011090C0D1D1DF801808160
:10347000082E000C990B0E947C1D892B99F40F5F7C
:103480001F4FA8014E195F09C554DF4F5983488368
:10349000CB5BD040CE14DF0458F4B701C6010E94C4
:1034A000542006C00E151F0550F301501109DECF40
:1034B000C954DF4FE881F981C75BD040C554DF4F65
:1034C00088819981CB5BD040E80FF91F108261EAB7
:1034D00074E0CE0189549F4F0E940A0C8823B1F0FA
:1034E000BE016D5A7F4FCE0101960E947E0AE09187
:1034F000CF05F091D005EE0FFF1FE051FD4F608129
:103500007181CE0101960E941712A3C167EA74E08F
:10351000CE0189549F4F0E940A0C882309F498C059
:10352000BE016D5A7F4FCE0101960E947E0A69EC62
:1035300075E0CE018F549F4F0E94EA1564EB74E052
:10354000CE0185559F4F0E945C0E86EDE82E85E0EA
:10355000F82E00E010E0D7016D917D917D014AE0E9
:10356000CE018B559F4F0E94120EBE016B557F4FAF
:10357000CE0185559F4F0E94DE0DCE018B559F4F8A
:103580000E940D0E0130110519F46EEA74E002C0BC
:1035900060EB74E0CE018B559F4F0E945C0EBE0124
:1035A0006B557F4FCE0185559F4F0E94DE0DCE019A
:1035B0008B559F4F0E940D0E0130110519F001E04F
:1035C00010E0C9CFBE0165557F4FCE018F549F4F8C
:1035D0000E94DE0DCE0185559F4F0E940D0E67ECB7
:1035E00075E0CE018B559F4F0E94EA15BE016B55C9
:1035F0007F4FCE018F549F4F0E94DE0DCE018B5521
:103600009F4F0E940D0E65EC75E0CE018B559F4FCC
:103610000E94EA15BE016B557F4FCE018F549F4F1C
:103620000E94DE0DCE018B559F4F0E940D0EBE01F4
:103630006F547F4FCE0101960E94620562EB74E0E9
:10364000CE0101960E949405CE018F549F4F41C038
:1036500065EB74E0CE0189549F4F0E940A0C8823C9
:10366000D9F1BE016D5A7F4FCE0101960E947E0AAC
:10367000CE018B559F4F0E949A0BBE016B557F4F19
:10368000CE0101960E946205CE018B559F4F0E948C
:103690000D0ECE018B559F4F0E94BD0ABE016B558A
:1036A0007F4FCE0101960E946205CE018B559F4F40
:1036B0000E940D0ECE018B559F4F0E94110BBE0133
:1036C0006B557F4FCE0101960E946205CE018B554E
:1036D0009F4F0E940D0EBDC06BEB74E0CE0189546C
:1036E0009F4F0E940A0C882309F454C0BE016D5AF2
:1036F0007F4FCE0101960E947E0A0E945E070091D4
:10370000CB051091CC052091CD053091CE05601BE5
:10371000710B820B930B28EE33E040E050E00E94E7
:10372000F91D69017A01CA01B90120E831E541E0DA
:1037300050E00E94F91D20E13EE040E050E00E9490
:10374000F91D822F0E94F50960EC74E087EC96E089
:103750000E949405C701B601A50194010E94F91DBC
:10376000162FCA01B901A50194010E94F91D862FE7
:103770000E94F50960EC74E087EC96E00E949405E5
:10378000812F0E94F50962EB74E087EC96E00E94BD
:1037900094055FC062EC74E0CE0189549F4F0E9493
:1037A0000A0C8823D1F1BE016D5A7F4FCE010196DC
:1037B0000E947E0A60EC72E0CE0101960E947005C4
:1037C00069E772E0CE0101960E9470056EE472E036
:1037D000CE0101960E94700564E172E0CE0101966F
:1037E0000E94700569ED71E0CE0101960E9470059E
:1037F00064EA71E0CE0101960E9470056CE771E009
:10380000CE0101960E9470056AE571E0CE01019635
:103810000E94700567E271E012C06DEC74E0CE01A9
:1038200089549F4F0E940A0C882361F0BE016D5A93
:103830007F4FCE0101960E947E0A62EE72E0CE01B9
:10384000019605C06FE073E0CE018D5A9F4F0E9434
:103850007005CE018D5A9F4F0E94D109CE01895427
:103860009F4F0E940D0E0E941B030FCD66ED74E06A
:103870008AED95E00E941712E4E0F0E0F093D005A5
:10388000E093CF050E945E076093CB057093CC0553
:103890008093CD059093CE050CCD82E090E00E9400
:1038A000080A0E94BB146FE075E02DC069EC75E05A
:1038B00082E892E00E94B5138091C905882369F0DF
:1038C0008091CA05882349F083E090E00E94080AAD
:1038D0000E94BB146AE275E016C065EC75E086E8EC
:1038E00092E00E94B5138091C505811104C08091BA
:1038F000C605882369F083E090E00E94080A0E94D0
:10390000BB146FE375E08AED95E00E9417123BCD82
:103910000E94450A882309F436CD81E090E00E9498
:10392000080A62E574E0EFCFE9E3F7E087E993E0A6
:10393000918380831282138214821582EAE2F6E078
:103940001382128248EE53E060E070E044835583B6
:103950006683778329E033E0318320832DEC30E0E8
:10396000358724872CEC30E03787268728EC30E039
:10397000318B208B29EC30E0338B228B2AEC30E02A
:10398000358B248B2EEC30E0378B268B118E128EEC
:10399000138E148EAAEDB5E013961C921E92129708
:1039A00014964D935D936D937C9317972BE133E0C1
:1039B00011963C932E932FEF3FEF1D963C932E9341
:1039C0001C97AFE3B7E011969C938E9312961C92CE
:1039D000129713961C92139714961C92149715968F
:1039E0001C92A5E4B7E011969C938E9312961C92BC
:1039F000129713961C92139714961C92149715966F
:103A00001C92A9E1B7E01C921696FC93EE931597D1
:103A100017961C92179718961C9218971A96FC9353
:103A2000EE931997EEE2F7E091838083128213827E
:103A300014821582E4E2F7E0138212828DE793E0AC
:103A400091838083B583A48383EB95E197838683F9
:103A500010861186E7ECF6E01382128244835583C8
:103A6000668377838DE593E091838083B587A48710
:103A700016861786108A0895FB01DC0105900D92C9
:103A80000020E1F70895FC0105900020E9F78095FA
:103A900090958E0F9F1F08954532510520F44230B6
:103AA00010F00C94571DFB011082CB010895BB2729
:103AB0004A3031F4992322F4BDE2909581959F4FCD
:103AC0000C94631DBB27FB015527AA27880F991F5C
:103AD000AA1FA41710F0A41B83955051B9F7A05D3D
:103AE000AA3308F0A95DA193009779F7B111B193BA
:103AF0001192CB010C94851D91110C94951D80326F
:103B000019F089508550C8F70895DC01FC01672F32
:103B100071917723E1F7329704C07C916D937083A4
:103B20006291AE17BF07C8F30895992788270895B3
:103B3000052E97FB1EF400940E94AF1D57FD07D081
:103B40000E94F91D07FC03D04EF40C94AF1D509554
:103B50004095309521953F4F4F4F5F4F0895909579
:103B60008095709561957F4F8F4F9F4F08950E946C
:103B70001B1EA59F900DB49F900DA49F800D911DBD
:103B8000112408952F923F924F925F926F927F92ED
:103B90008F929F92AF92BF92CF92DF92EF92FF925D
:103BA0000F931F93CF93DF93CDB7DEB7CA1BDB0B09
:103BB0000FB6F894DEBF0FBECDBF09942A883988AE
:103BC00048885F846E847D848C849B84AA84B984B5
:103BD000C884DF80EE80FD800C811B81AA81B981C1
:103BE000CE0FD11D0FB6F894DEBF0FBECDBFED01D5
:103BF0000895A1E21A2EAA1BBB1BFD010DC0AA1F2E
:103C0000BB1FEE1FFF1FA217B307E407F50720F045
:103C1000A21BB30BE40BF50B661F771F881F991FC0
:103C20001A9469F760957095809590959B01AC0109
:103C3000BD01CF010895A29FB001B39FC001A39F12
:103C4000700D811D1124911DB29F700D811D1124D5
:103C5000911D089597FB072E16F4009407D077FD69
:103C600009D00E94441E07FC05D03EF49095819532
:103C70009F4F0895709561957F4F0895EE0FFF1F38
:103C80000590F491E02D0994AA1BBB1B51E107C0DC
:103C9000AA1FBB1FA617B70710F0A61BB70B881FDC
:103CA000991F5A95A9F780959095BC01CD0108956B
:103CB000CF93DF938230910510F482E090E0E091A1
:103CC0007707F091780720E030E0C0E0D0E030974F
:103CD00011F14081518148175907C0F04817590721
:103CE00061F482819381209719F09B838A832BC092
:103CF000909378078093770726C02115310519F036
:103D00004217530718F49A01BE01DF01EF01028048
:103D1000F381E02DDCCF2115310509F1281B390B8A
:103D20002430310590F412968D919C911397611572
:103D3000710521F0FB019383828304C0909378077F
:103D400080937707FD01329644C0FD01E20FF31F17
:103D500081939193225031092D933C933AC0209145
:103D6000750730917607232B41F420910F01309194
:103D70001001309376072093750720910D01309143
:103D80000E012115310541F42DB73EB740911101C7
:103D900050911201241B350BE0917507F0917607C5
:103DA000E217F307A0F42E1B3F0B2817390778F012
:103DB000AC014E5F5F4F2417350748F04E0F5F1F71
:103DC00050937607409375078193919302C0E0E08A
:103DD000F0E0CF01DF91CF9108950F931F93CF9320
:103DE000DF93009709F48CC0FC0132971382128292
:103DF00000917707109178070115110581F4208152
:103E00003181820F931F2091750730917607281713
:103E1000390779F5F0937607E093750771C0D801FB
:103E200040E050E0AE17BF0750F412962D913C9140
:103E30001397AD012115310509F1D901F3CF9D018A
:103E4000DA013383228360817181860F971F821785
:103E5000930769F4EC0128813981260F371F2E5F03
:103E60003F4F318320838A819B8193838283452BBB
:103E700029F4F0937807E093770742C01396FC93F8
:103E8000EE931297ED01499159919E01240F351F30
:103E9000E217F30771F480819181840F951F0296D8
:103EA00011969C938E938281938113969C938E930B
:103EB0001297E0E0F0E0D80112968D919C91139753
:103EC000009719F0F8018C01F6CF8D919C91980123
:103ED0002E5F3F4F820F931F209175073091760719
:103EE0002817390769F4309729F41092780710924F
:103EF000770702C01382128210937607009375072A
:103F0000DF91CF911F910F910895A0E0B0E0EBE811
:103F1000FFE10C94C61DEC01009721F4CB010E9437
:103F2000581EB8C0FC01E60FF71F9C012250310952
:103F3000E217F30708F4ACC0D9010D911C91119759
:103F400006171707B0F00530110508F49FC0C80127
:103F500004978617970708F499C002501109061BA9
:103F6000170B019311936D937C93CF010E94ED1E6B
:103F70008DC05B01A01AB10A4C01800E911EA09168
:103F80007707B091780740E050E0E12CF12C1097D2
:103F900009F44AC0A815B905D1F56D907C90119728
:103FA000630182E0C80ED11CCA14DB0480F1A301B6
:103FB0004A195B096A0182E0C80ED11C1296BC90B6
:103FC00012971396AC91B5E0CB16D10440F0B282B3
:103FD000A38351834083D9016D937C930AC00E5F04
:103FE0001F4FC301800F911FF90191838083EB2D37
:103FF000FA2FE114F10431F0D7011396FC93EE93FC
:10400000129744C0F0937807E09377073FC08D91F3
:104010009C9111974817590708F4AC017D0112963D
:104020000D90BC91A02DB3CF80917507909176072C
:1040300088159905E1F446175707C8F480910D01DA
:1040400090910E01009741F48DB79EB740911101F8
:1040500050911201841B950BE817F907C8F4F093EF
:104060007607E0937507F901718360830FC0CB0178
:104070000E94581E7C01009759F0A801BE010E94C1
:104080005420CE010E94ED1EC70104C0CE0102C023
:1040900080E090E0CDB7DEB7EEE00C94E21D81E069
:1040A00090E0F8940C946D20FB01DC0102C00190BB
:1040B0000D9241505040D8F70895FB01DC018D91DD
:1040C000019080190110D9F3990B0895FB01DC01CF
:1040D00001900D920020E1F7089511E0C4EFD1E0C6
:1040E00004C0FE010E943E1E2196C53FD107C9F7BC
:0440F000F894FFCF72
:1040F400FFFFFFFF00E1000000000000FF00007967
:104104000780002068617320616E616C6F672076A0
:10411400616C75653A2000536D6F6B65264761735A
:10412400206465746563746F723A20002D2D2D2D03
:104134002D2D2D2D2D2D2D2D2D2D2D2D2D2D2D2DAB
:104144002D2D2D2D2D2D20534D4F4B452026204711
:1041540041532064656275670A002E2E2E206D6F10
:1041640074696F6E206E6F74206465746563746522
:10417400642E0A00776572652073776974636865D5
:1041840064206F6E205820592074696D65733A203D
:1041940000202D2D3E2031202D206973206465746C
:1041A400656374696E67206D6F74696F6E2E0A00A3
:1041B40050495220002D2D2D2D2D2D2D2D2D2D2D01
:1041C4002D2D2D2D2D2D2D2D2D2D2D2D2D2D2D2028
:1041D4005049522064656275670A00206973207330
:1041E40077697463686564204F4646202D204441F6
:1041F4004E4745522E0A00202D2D3E206973207310
:1042040077697463686564204F4E202D204F4B2ED0
:104214000A002061742070696E3A20004D61676E57
:1042240065746963207377697463683A20002D2D7F
:104234002D2D2D2D2D2D2D2D2D2D2D2D2D2D2D2DAA
:104244002D2D2D2D2D2D2D2D204D41474E455449DD
:1042540043205357495443482064656275670A00F4
:104264005858585858585831303007000600320012
:104274005000090008000B000A00534F53202D2062
:10428400506879736963616C2064697372757074C2
:10429400696F6E206F6620746865206F626A65635B
:1042A400742E2043616C6C20746865206F776E6592
:1042B40072206F7220636F70732100534F53202D4F
:1042C40020736D6F6B652F6761732E2043616C6C77
:1042D40020666972652D66696768746572732E005D
:1042E4005C055A0563056805730500C180810000FB
:1042F400001300120000000000B2021F024A02F97B
:10430400027B0259026D02000000002503D906D386
:10431400033B034603FB03D70300000000080C081B
:104324000CD003080C080C080C080C080C080C082A
:104334000C080C080C080C00000000080C1F02D02C
:1043440003CF03080C080C080C00000000AE091988
:1043540004D003C203800968092209AF0433083575
:1043640009D109B508CC03C3030000000095091F57
:1043740002D003CF034F0400000000080C1F02D03A
:1043840003CF03000000001C0500000000080C55CA
:104394004E4C4F434B202D20534F465420524553EF
:1043A400455420627574746F6E00202D2D204C4985
:1043B4004D49542045584345454445440A00202D61
:1043C4002D204F4B2E0A00496E696369616C697A2E
:1043D4006174696F6E206F6620746865206761720E
:1043E4006167652073797374656D2C2077616974D6
:1043F4002033206D696E7574657320706C6561730C
:10440400652E002E2E2E20002500496E69636961F9
:104414006C697A6174696F6E20646F6E65005275A1
:104424006E6E696E672073797374656D202D2067D5
:10443400617261676520697320756E6C6F636B656B
:104444006400554E4C4F434B202D206C6F636B2002
:10445400706F737369626C65206166746572203372
:10446400207365632E004C4F434B202D20796F75CC
:104474002063616E20756E6C6F636B2069742061BC
:104484006761696E206166746572203320736563A9
:104494000073746174650076616C756573003B002C
:1044A4002C000D0A0064656275670074696D65000F
:1044B4003A0076616C75657348656C7000636F6D66
:1044C4006D616E647300454D455247454E43592016
:1044D4002D2050726F7061626C792073656E736FFA
:1044E40072206661696C7572652C206F7220636935
:1044F400726375697420637574206F66662E004656
:10450400495245202D20676173206573636170658E
:10451400206F7220666972652E00444953525550CB
:1045240054494F4E202D206D6F74696F6E2E0044D8
:10453400495352555054494F4E202D206F70656E8B
:10454400656420646F6F72732E00554E4C4F434B5D
:104554004544004649524500444953525550544934
:104564004F4E00454D455247454E4359002A2A2A8D
:104574002A2A2A2A2A2A202000206D732066726F94
:104584006D20626F6F74202A2A2A2A2A2A2A2A2A4C
:044594002A2A0000CF
:00000001FF
